:020000040000fa
:080000000002040000000000f2
:020000040000fa
:04000800d80200001a
:020000040000fa
:04000c00d802000016
:020000040000fa
:04001000d802000012
:020000040000fa
:04001400d80200000e
:020000040000fa
:04001800d80200000a
:020000040000fa
:04001c00d802000006
:020000040000fa
:04002000d802000002
:020000040000fa
:04002400d8020000fe
:020000040000fa
:04002800d8020000fa
:020000040000fa
:04002c0004030000c9
:020000040000fa
:04003000d8020000f2
:020000040000fa
:04003400d8020000ee
:020000040000fa
:04003800d8020000ea
:020000040000fa
:04003c003803000085
:020000040000fa
:04004000d8020000e2
:020000040000fa
:040044007e03000037
:020000040000fa
:04004800d8020000da
:020000040000fa
:04004c00d8020000d6
:020000040000fa
:04005000d8020000d2
:020000040000fa
:04005400d8020000ce
:020000040000fa
:04005800d8020000ca
:020000040000fa
:04005c00d8020000c6
:020000040000fa
:04006000d8020000c2
:020000040000fa
:04006400d8020000be
:020000040000fa
:04006800d8020000ba
:020000040000fa
:04006c00d8020000b6
:020000040000fa
:04007000d8020000b2
:020000040000fa
:0400740092030000f3
:020000040000fa
:04007800d8020000aa
:020000040000fa
:04007c00d8020000a6
:020000040000fa
:04008000d8020000a2
:020000040000fa
:04008400d80200009e
:020000040000fa
:04008800d80200009a
:020000040000fa
:04008c00d802000096
:020000040000fa
:04009000d802000092
:020000040000fa
:04009400d80200008e
:020000040000fa
:04009800d80200008a
:020000040000fa
:04009c00d802000086
:020000040000fa
:0400a000d802000082
:020000040000fa
:0400a400d80200007e
:020000040000fa
:0400a800d80200007a
:020000040000fa
:0400ac00d802000076
:020000040000fa
:0400b000d802000072
:020000040000fa
:0400b400d80200006e
:020000040000fa
:0400b800d80200006a
:020000040000fa
:0400bc00d802000066
:020000040000fa
:0400c000d802000062
:020000040000fa
:0400c400d80200005e
:020000040000fa
:0400c800d80200005a
:020000040000fa
:0400cc00d802000056
:020000040000fa
:0400d000d802000052
:020000040000fa
:0400d400d80200004e
:020000040000fa
:0400d800d80200004a
:020000040000fa
:0400dc00d802000046
:020000040000fa
:0400e000d802000042
:020000040000fa
:0400e400d80200003e
:020000040000fa
:0400e800d80200003a
:020000040000fa
:0400ec00d802000036
:020000040000fa
:0400f000d802000032
:020000040000fa
:0400f400d80200002e
:020000040000fa
:0400f800d80200002a
:020000040000fa
:0400fc00d802000026
:020000040000fa
:04010000d802000021
:020000040000fa
:04010400d80200001d
:020000040000fa
:04010800d802000019
:020000040000fa
:04010c00d802000015
:020000040000fa
:04011000d802000011
:020000040000fa
:04011400d80200000d
:020000040000fa
:04011800d802000009
:020000040000fa
:04011c00d802000005
:020000040000fa
:04012000d802000001
:020000040000fa
:04012400d8020000fd
:020000040000fa
:04012800d8020000f9
:020000040000fa
:04012c00d8020000f5
:020000040000fa
:04013000d8020000f1
:020000040000fa
:04013400d8020000ed
:020000040000fa
:04013800d8020000e9
:020000040000fa
:04013c00d8020000e5
:020000040000fa
:04014000d8020000e1
:020000040000fa
:04014400d8020000dd
:020000040000fa
:04014800d8020000d9
:020000040000fa
:04014c00d8020000d5
:020000040000fa
:04015000d8020000d1
:020000040000fa
:04015400d8020000cd
:020000040000fa
:04015800d8020000c9
:020000040000fa
:04015c00d8020000c5
:020000040000fa
:04016000d8020000c1
:020000040000fa
:04016400d8020000bd
:020000040000fa
:04020800d802000018
:020000040000fa
:04020c00d802000014
:020000040000fa
:04021000d802000010
:020000040000fa
:04021400d80200000c
:020000040000fa
:04021800d802000008
:020000040000fa
:04021c00d802000004
:020000040000fa
:04022000d802000000
:020000040000fa
:04022400d8020000fc
:020000040000fa
:04022800d8020000f8
:020000040000fa
:04022c00d8020000f4
:020000040000fa
:04023000d8020000f0
:020000040000fa
:04023400d8020000ec
:020000040000fa
:04023800d8020000e8
:020000040000fa
:04023c00d8020000e4
:020000040000fa
:04024000d8020000e0
:020000040000fa
:04024400d8020000dc
:020000040000fa
:04024800d8020000d8
:020000040000fa
:04024c00d8020000d4
:020000040000fa
:04025000d8020000d0
:020000040000fa
:04025400d8020000cc
:020000040000fa
:04025800d8020000c8
:020000040000fa
:04025c00d8020000c4
:020000040000fa
:04026000d8020000c0
:020000040000fa
:04026400d8020000bc
:020000040000fa
:04026800d8020000b8
:020000040000fa
:04026c00d8020000b4
:020000040000fa
:04027000d8020000b0
:020000040000fa
:04027400d8020000ac
:020000040000fa
:04027800d8020000a8
:020000040000fa
:04027c00d8020000a4
:020000040000fa
:04028000d8020000a0
:020000040000fa
:04028400d80200009c
:020000040000fa
:04028800d802000098
:020000040000fa
:04028c00d802000094
:020000040000fa
:04029000d802000090
:020000040000fa
:04029400d80200008c
:020000040000fa
:04029800d802000088
:020000040000fa
:04029c00d802000084
:020000040000fa
:0402a000d802000080
:020000040000fa
:0402a400d80200007c
:020000040000fa
:0402a800d802000078
:020000040000fa
:0402ac00d802000074
:020000040000fa
:0402b000d802000070
:020000040000fa
:0402b400d80200006c
:020000040000fa
:0402b800d802000068
:020000040000fa
:0402bc00d802000064
:020000040000fa
:0402c000d802000060
:020000040000fa
:0402c400d80200005c
:020000040000fa
:0402c800d802000058
:020000040000fa
:0402cc00d802000054
:020000040000fa
:0402d000d802000050
:020000040000fa
:0402d400d80200004c
:020000040000fa
:0402d800d802000048
:020000040000fa
:0402dc00d802000044
:020000040000fa
:0402e000d802000040
:020000040000fa
:0402e400d80200003c
:020000040000fa
:0402e800d802000038
:020000040000fa
:0402ec00d802000034
:020000040000fa
:0402f000d802000030
:020000040000fa
:0402f400d80200002c
:020000040000fa
:0402f800d802000028
:020000040000fa
:0402fc00d802000024
:020000040000fa
:04030000d80200001f
:020000040000fa
:04030400d80200001b
:020000040000fa
:04030800d802000017
:020000040000fa
:04030c00d802000013
:020000040000fa
:04031000d80200000f
:020000040000fa
:04031400d80200000b
:020000040000fa
:04031800d802000007
:020000040000fa
:04031c00d802000003
:020000040000fa
:04032000d8020000ff
:020000040000fa
:04032400d8020000fb
:020000040000fa
:04032800d8020000f7
:020000040000fa
:04032c00d8020000f3
:020000040000fa
:04033000d8020000ef
:020000040000fa
:04033400d8020000eb
:020000040000fa
:04033800d8020000e7
:020000040000fa
:04033c00d8020000e3
:020000040000fa
:04034000d8020000df
:020000040000fa
:04034400d8020000db
:020000040000fa
:04034800d8020000d7
:020000040000fa
:04034c00d8020000d3
:020000040000fa
:04035000d8020000cf
:020000040000fa
:04035400d8020000cb
:020000040000fa
:04035800d8020000c7
:020000040000fa
:04035c00d8020000c3
:020000040000fa
:04036000d8020000bf
:020000040000fa
:04036400d8020000bb
:020000040000fa
:100400000fa720000e7f22000e01880000000000d0
:10041000000020000000e000020032000001200087
:1004200020028800140007005c0307000000e000c1
:1004300003003a00e0fb2300010020000200370027
:100440000000200001002000810f70000100320038
:1004500014000700000020000000e000020032004d
:1004600000000200000000007a2d020000000000e1
:100470000040da000000fe004440a900a0f3200084
:100480000000e0000300320000002000a00188000e
:100490004440a800000006008a1f78008b1f7800e7
:1004a0000000060091018800800478000000eb0045
:1004b0001a003700e284440032a0b4009905ba0063
:1004c000e284440032a0b4009906ba00e2844400f9
:1004d00032a0b4000006eb00476fde00fd07b2005b
:1004e000636ce10003003a00ebff07000000eb0043
:1004f0000a003700606ce10004003a00005deb0088
:100500008b05e900fdff3e00040037006168e10053
:10051000010032000086eb000b00070019c7ba008b
:100520001905ba000e04e00003003a000a00e000da
:10053000e0ff3a0000000600fe07b2009e018800be
:100540008a047800f5ff3700395dba008b05e900b1
:100550000c003200295dba008b05e900080032006a
:100560000c00e00003003a00e284440032a0b40032
:10057000f5ff370019ddba008b05e900faff3a00f4
:100580008904e800e184440032a0b40000000600c1
:10059000903c040000000000b63c04000000000095
:1005a000743d0400000000009a3d040000000000bb
:1005b0003600f800809fbe00829fbe00849fbe0070
:1005c000869fbe003400f80000002000a0018800d3
:1005d0000000fa0040822000010780000108780036
:1005e000c0c428009c1107000080fa003400f90004
:1005f0004f03be004f02be004f01be004f00be00c1
:100600003600f90000400600809fbe00821f78007f
:100610003400f80000002000a00188000000fa006b
:1006200020168000004078006140600000c0ea00b1
:10063000614060000080fb006100600022168000c5
:10064000e1ff2f008100610001007000201688008a
:100650008420a900000a8000a04088000080fa00e1
:100660003400f9004f0178004f00be000040060042
:100670003600f800809fbe00829fbe00849fbe00af
:10068000869fbe003400f80000002000a001880012
:100690000000fa0084a0a900000a8000b040880091
:1006a000b1408000a0408000808050000000250004
:1006b000808f500009003600b1408000a0408000cb
:1006c000808f500005003600db13070010c0b30018
:1006d00026e8b70010002000904088000080fa0053
:1006e0003400f9004f03be004f02be004f01be00b0
:1006f0004f00be003600f900004006003400f8004c
:10070000881f780008002000a80188004f047800a6
:100710000000fa0084e0a9000080fa003400f9002b
:10072000004006003600f800809fbe00829fbe0099
:10073000849fbe00869fbe003400f80000002000a9
:10074000a00188000e00fa008660a9009660a9004a
:1007500090408000e10f50000e003200e10f500089
:1007600003003900e20f5000090132005001370048
:10077000ad1307000004e00048013200ae1307008b
:1007800010c0b30026e8b700100020009040880099
:1007900047013700000000005116800000002200d1
:1007a000008060000000e000fbff3a00d313070068
:1007b000404f9800ce48900000c3b30080cf500057
:1007c00010003600ce48900050c3b30080cf5000d8
:1007d0000c003e000000eb00000f78000500370021
:1007e000808220001e004000104078006314070043
:1007f0001e0fe8001e007800e70f5000f8ff3400dd
:10080000e20037004e489000f54f40009a00360055
:100810004e489000ec4f400097003e000000eb0077
:10082000100798007c003700818220001e00900095
:100830000080400090407800514f98000000000078
:100840005116800000002200008060000000e000df
:10085000fbff3a005e489000614060002e140700e4
:100860000004e000700032005e4890000080fb0051
:100870000000d100504f9800000000005116800089
:1008800000002200008060000000e000fbff3a0052
:100890005e489000614060001f1407000004e00003
:1008a000630032005e4890000080fb000000d10031
:1008b000504f9800000000005116800000002200f8
:1008c000008060000000e000fbff3a005e489000fe
:1008d00061406000101407000004e0005600320080
:1008e0005e4890000080fb000000d100504f98004f
:1008f000000000005116800000002200008060000f
:100900000000e000fbff3a005e489000614060009c
:10091000011407000004e000490032005e48900026
:100920000080fb000000d100504f98000000000044
:100930005116800000002200008060000000e000ee
:10094000fbff3a005e48900061406000f213070030
:100950000004e0003c0032005e4890000080fb0094
:100960000000d100504f9800000000005116800098
:1009700000002200008060000000e000fbff3a0061
:100980005e48900061406000e31307000004e0004f
:100990002f0032005e4890000080fb000000d10074
:1009a000504f980000000000511680000000220007
:1009b000008060000000e000fbff3a005e4890000d
:1009c00061406000d41307000004e0002200320000
:1009d0005e4890000080fb000000d100504f98005e
:1009e000000000005116800000002200008060001e
:1009f0000000e000fbff3a005e48900061406000ac
:100a0000c51307000004e000150032001e0090002e
:100a10000000e800100798001e009000e70f50004b
:100a200081ff34000f003700000000000d00370088
:100a3000000000000b003700000000000900370034
:100a4000000000000700370000000000050037002c
:100a50000000000003003700000000000100370024
:100a6000000000000040eb00404f98001228ef000b
:100a70008660a9008f003700ce48900020c5b300e3
:100a800080cf500034003600ce48900070c5b300cf
:100a900080cf500030003e000000eb00200798009f
:100aa00025003700818220002e0090000080400049
:100ab00090407800614798000000eb0040079800e4
:100ac00017003700000000005116800000002200cf
:100ad000008060000000e000fbff3a006e409000e4
:100ae000614060007f1307000004e00005003a0049
:100af0000040eb00404f98001228ef009660a800dd
:100b00006c0037006e4090000080fb000000d100b8
:100b1000604798004e0090000000e80040079800f1
:100b20004e009000e70f5000e6ff34002e009000ca
:100b30000000e800200798002e009000e70f50000a
:100b4000d8ff34000040eb00404f98002000200008
:100b5000904088000d003700ce48900090ccb30044
:100b600080cf50004f003600ce489000e0ccb3005c
:100b700080cf50004d003e000040eb00404f9800f9
:100b800020002000904088004900370048003700ce
:100b9000da120700404f9800ce48900010c4b3000e
:100ba00080cf500007003600ce48900060c4b300ec
:100bb00080cf500003003e0010c0b30026e8b7000d
:100bc00032003700ce48900090cbb30080cf500069
:100bd0001d003600ce48900030ccb30080cf5000ce
:100be00019003e0026c8bf00e14f500027003a0020
:100bf00010002000500798000e0037000000000091
:100c00005116800000002200008060000000e0001b
:100c1000fbff3a0041af29005e00900000804000d9
:100c200010407800551307005e0090000000e800b7
:100c3000500798005e009000e90f5000efff34006d
:100c40002668ef0011003700ce489000e0c4b300e2
:100c500080cf50000d003a0026c8bf00e14f500081
:100c60000a003a00a5120700a1a6200080487800db
:100c7000a2120700b1a62000804878009f1207004a
:100c8000c1a62000804878002668ef000040eb00f5
:100c9000404f98001228ef000500370000000000c8
:100ca00003003700000000000100370000000000d2
:100cb0009660a8000080fa003400f9004f03be00df
:100cc0004f02be004f01be004f00be003600f900cb
:100cd000004006000c00fa00300798004107980019
:100ce000520798003e0090006400400010407800d9
:100cf0000000fb00e1062000810f500011003200cf
:100d0000e1062000810f500007003c001103200085
:100d1000810f50002300320021032000810f50007a
:100d2000300032003f00370021072000810f5000c3
:100d30001400320051072000810f500009003200da
:100d4000380037004f1d07000000e00002003200ad
:100d50000080eb00540037000000eb00000f78002b
:100d600032003700471d07000000e000020032009b
:100d70000080eb004c00370010002000000f7800ce
:100d80002a0037003f1d07000000e000020032008b
:100d90000080eb004400370020002000000f7800a6
:100da0002200370070538000e10f500002003a002b
:100db0000080eb003c00370001118000000028009b
:100dc000008060000000e00003003a0000402800be
:100dd00031002000f11a070030002000000f7800d9
:100de0001200370070538000e20f500002003a00fa
:100df0000080eb002c0037008111800000002800eb
:100e0000008060000000e00003003a00004028007d
:100e100031002000531b070040002000000f780025
:100e2000020037000080eb001f0037004e009000ea
:100e300063006000100798004e00900000f0a000d2
:100e4000200798001e0090000000e0000300320020
:100e50001e009000e20f500006003a001e007800cd
:100e6000c300dd0040a3200000804000ae009000e1
:100e7000010878001e009000e10f500003003200ce
:100e80001e009000e20f500006003a001e0078009d
:100e9000c300dd0060a3200000804000ae00900091
:100ea000010878001e0078000080fa0000000600ab
:100eb0000800fa00881f78001007980021079800a2
:100ec000320798001e0090000000e000030035008b
:100ed0001e009000e40f5000020034000080eb0080
:100ee000490037001e0090000000e00007003a00b3
:100ef000a05180000000e000040035000001eb007c
:100f00000100240040b6290072ff07001e00900077
:100f10004300dd00e400400000a32000008040000a
:100f2000100078000000e00002003a000080eb00b2
:100f3000350037000000eb00000f78002d0037006f
:100f40002e0090001e0440001e0090004300dd00b3
:100f50008080e80000a3200000804000100078009e
:100f600000000100004c78001e0090004300dd00ee
:100f7000e400400000a320000080400090007800c2
:100f800000002400008060000000e0000700320044
:100f90002e0090001e00400010407800ea4f5000e4
:100fa00002003a001e0fe800160037001e009000f5
:100fb0004300dd00e400400000a32000008040006a
:100fc0009000780000002400008060000000e00035
:100fd000070032002e0090001e00400010407800f4
:100fe000ed4f500002003a001e0fe80005003700e8
:100ff0001e0fe8003e0090009e007800808f500099
:10100000cfff39001e0078004f0478000080fa00fe
:10101000000006000800fa00100798002107980059
:10102000320798001e0090000000e0000300350029
:101030001e009000e40f5000020034000080eb001e
:10104000470037001e009000e10f500007003a00f3
:10105000f05180000000e000040035000001eb00ca
:1010600011002400a0b629001aff07001e009000fe
:10107000e20f500007003a00305280000000e0000c
:10108000040035000001eb001100240010b7290016
:1010900010ff07001e0090004300dd00e600400046
:1010a00000a3200000804000100078000000e00055
:1010b00002003a000080eb00290037000000eb003e
:1010c000000f7800210037001e0090004300dd0073
:1010d000e600400000a3200000804000900078005f
:1010e00000002400008060000000e0000d003200dd
:1010f0002e0090001e00400010407800ea4f500083
:1011000008003a001e009000c300dd0000a320008c
:101110000080400090007800a0c0b30001000100f2
:10112000090037001e009000c300dd0000a320006e
:1011300000804000900078002e0090001e004000cb
:1011400010407800010001001e0fe8003e009000f2
:101150009e007800808f5000dbff39001e00780071
:101160000080fa00000006000200fa00000f78007c
:101170000000eb000080fa00000006000800fa0002
:10118000000f780012079800230798003107980095
:101190006000b8000080fa000000060000000500b2
:1011a00003f0a200889fbe008a9fbe008c1f7800bb
:1011b000060107000d0133006450e1004f003200ca
:1011c0006420e1005200320003826c0007003b0003
:1011d0000905d0000306d000820f54000c065d0004
:1011e000020039000200320089017800030678000d
:1011f0008582550004003d000003fd008103fd00d1
:101200008502ea008b854200840f720002003b00d9
:1012100060001000e08018006011b8000005eb00cd
:101220007a28e1000a00390006007800c75ddd0079
:10123000f707b200878075002d00370082817100aa
:101240000a017800610560008180d1000080d30030
:101250008502e900f9ff3b0006044000878448004e
:1012600002003b0060041400e0841c000988a30015
:10127000070032008a81710082817100610164007f
:101280008904d1000884d3008b05e80017003700db
:101290000978a30013003a000b00e00013003400ab
:1012a0008b05e9000804440089844c000a4474005a
:1012b0000978a3000d003a000b00e000070034009d
:1012c0008b05e9000804440089844c0001003a00c1
:1012d0000b0020000978a300f7ff32000001eb00ab
:1012e00002003700828171000a0178007c0007004b
:1012f0000cf0a70001f0a000c50037006420e10059
:1013000002003a00838f6c00c50033000801be0064
:101310000200be00be003700889fbe008a9fbe004c
:101320008c1f7800a9000700b000330003866c0012
:101330006450e1002e0032006420e10033003200ee
:101340006150e1002f0032006120e10031003200e5
:1013500085855500eb07b000090020000804200037
:10136000050037000804440089844c000a0031005d
:101370000603430087834b000001530081815b001b
:10138000f8ff33000203be000800a0000804440078
:1013900089844c00f6ff3900c639dd0083017300f3
:1013a00001003200130020008904d1000884d3001a
:1013b0000998a300050032000800a7000300a00060
:1013c0008904d1000884d3008b05e8008904d1008a
:1013d0000884d3000001eb000281d2004000070026
:1013e00001f0a1000cf0a70001f0a0008800370078
:1013f0006420e1008a0032000801be000200be0045
:10140000f7ff37006120e100850032006000b8007e
:10141000f3ff37000000200001f82700f0ff37003d
:10142000839f68000100e00002003d0060001000a2
:10143000e08018000300e00002003d0060011100a0
:10144000e0811900ad0007004f00e00002003b0002
:1014500060001000e080180000000600140020006a
:10146000b6003700f4ff2f00b40037000001be00c3
:10147000410007000470a70003f0a10003f8a300d7
:1014800013003a006509b100100032000900350070
:101490006928e10002003500010028000000050075
:1014a00000004000818048008502e900fcff3a000e
:1014b00000000600f88f4200050035008100d100d1
:1014c0000080d3008502e800fcff3a00000006001f
:1014d0008000eb00000005006011b800b20037008a
:1014e00081002000618055000b003d000b002000b2
:1014f00061fe2f000100e1001d00340082817100b7
:10150000610164008904d1000884d3000000e80070
:10151000faff3a00710020006100640003007000cf
:10152000020060000900320061044400e0844c00c5
:101530000988a500050032008b05e8006808e10075
:1015400002003a008904d1000884d300f20f200081
:101550000258e10005003d00c75ddd00f907b2005b
:101560008980750008007800000006000bf827004d
:101570008b00780000000500c70ade00f107b2000a
:10158000f50fb20008003200e1cf42000200320045
:101590000170a00024000500810f700001003200de
:1015a0000408050044000500810f700002003a00a5
:1015b000140005008502e9000000400081c04800d9
:1015c000fcff3b000170a000240005000004be00e9
:1015d000e9ff07000003be000405be000200be00d4
:1015e000e5ff0700844f7500000006000200be0002
:1015f0006450e100050036006420e100020036007e
:101600000968a30001003a000800be000160a000c4
:101610004f0678004f05be004f04be0000000600d4
:10162000f0ff2f00f1ff2700f9ff3700889fbe0071
:101630008a9fbe008c1f7800e4ff0700ebff330099
:1016400003866c006450e100240032006420e10055
:10165000270032006150e100220032006120e100e9
:10166000210032008b854200eb07b1000134b80045
:10167000003ab8000804420089844a00013ab800e0
:101680000030b8008880400009014a00040033009f
:101690000000400081804800020149008b05e900fc
:1016a000c909dd0083017000010032001300200031
:1016b000c814de004814dd004709de001200b20045
:1016c000c808de000884700085ff070001f0a10053
:1016d0000cf0a70001f0a000cdff37006120e10071
:1016e000cfff32000801be000200be00f7ff370046
:1016f0006150e100fcff3a00c9ff37006022b800ea
:10170000060220000000d0008180d2000482d200b6
:101710008582d2000000a0000202520083825a009b
:10172000030031000202420083824a000000a1004f
:101730000603e900f3ff3a0000000600889fbe00a0
:101740008a9fbe00841f7800a0ff07004f0078002a
:1017500011003300f0ff2f00838f6c0006003b0068
:10176000040565000a00a7000800370009f0a6007c
:101770001000200008003700820f5400838f5c00a7
:10178000030039001000200001003e00000020008e
:1017900009f0a7000000ea004f05be004f04be009c
:1017a0000000e00000000600889fbe008a9fbe0087
:1017b0000082700004027100048271002600320071
:1017c0000004be000200be006011b8006b092000da
:1017d000950220000182cf000a0039000541b100c6
:1017e0000082cf00070039000541b1000982cf0017
:1017f000040039000541b1000882cf000100390022
:101800000541b10005425200120032000a003b00bf
:1018100082817100610164008100d1000080d300e9
:101820008984d3000884d3008b05e8000442e800d3
:10183000f7ff3a00070037000804440089844c0091
:1018400000004800818048008b05e9000442e9005f
:10185000f9ff3a0022ff07004f05be004f04be000b
:1018600000000600800178000200370081597800ee
:101870000201e9000200e000fcff3a00000006005f
:1018800080007800010178003104e000fdff3a009b
:081890000000510000000600f9
:020000040000fa
:10189800556e0000686100006e6400006c65000011
:1018a80064200000696e0000746500007272000018
:1018b80075700000742c000020000000756e000098
:1018c8006b6e00006f7700006e000000504900004a
:1018d80043320000344800004a310000323800002a
:1018e8004750000035300000320000004131000050
:1018f80000410000320000004133000000440000b5
:101908006576000069630000652000004944000016
:10191800203d0000200000002028000000290000d1
:101928002c200000726500007669000073690000d1
:101938006f6e000020000000290a0000000a000065
:101948000a2a00002a2a00002a2a00002a2a00005f
:101958002a2a00002a2a00002a2a00002a2a00002f
:101968002a2a00002a2a00002a2a00002a2a00001f
:101978002a2a00002a2a00002a2a00002a2a00000f
:101988002a2a00002a2a00002a2a00002a2a0000ff
:101998002a2a00002a2a00002a2a00002a2a0000ef
:1019a8002a2a00002a2a00002a2a00002a0a0000ff
:1019b8002a20000057410000524e0000494e000006
:1019c800472000002d2000007468000069730000a3
:1019d80020700000726f000067720000616d0000e7
:1019e8002077000061730000206300006f6d000025
:1019f800706900006c65000064200000666f0000dc
:101a080072200000746800006520000077720000f2
:101a18006f6e000067200000202a00000a2a0000dc
:101a28002063000068690000702e00002054000048
:101a38006869000073200000707200006f67000082
:101a4800726100006d2000006d61000079200000c7
:101a5800707200006f64000075630000652000006c
:101a6800756e000065780000706500006374000002
:101a78006564000020620000656800007669000067
:101a88006f720000212000002a0a00002a200000ae
:101a98004564000069740000207400006865000057
:101aa8002068000065610000646500007220000085
:101ab800666900006c65000073200000746f000008
:101ac80020700000726f000070650000726c0000ea
:101ad8007920000064650000666900006e650000fa
:101ae800207400006869000073200000636800002b
:101af80069700000202a00000a2a00002061000006
:101b08006e640000207400006f200000696e000001
:101b18007375000072650000206300006f7200009a
:101b28007265000063740000206f0000706500009b
:101b380072610000746900006f6e00002e200000c2
:101b4800202000002020000020200000202000008d
:101b5800202000002020000020200000202000007d
:101b6800202000002a0a00002a200000202000006f
:101b7800202000002020000020200000202000005d
:101b8800202000002020000020200000202000004d
:101b9800202000002020000020200000202000003d
:101ba800202000002020000020200000202000002d
:101bb800202000002020000020200000202000001d
:101bc800202000002020000020200000202000000d
:101bd800202a00000a2a0000204e00004f5400006e
:101be800453a0000204900006620000074680000a3
:101bf8006973000020770000617300002063000013
:101c08006f6d0000706900006c65000064200000c2
:101c1800666f0000722000007468000065200000f4
:101c2800636f00007272000065630000742000009a
:101c380063680000697000002c200000202000006c
:101c48002a0a00002a200000616e000064200000bb
:101c58006f6e00006c790000206f00006363000065
:101c6800757200007320000061740000207000008d
:101c78006f770000657200002d6f00006e20000075
:101c8800286e00006f740000206400007572000068
:101c9800696e000067200000612000004d430000cd
:101ca8004c5200002020000020200000202a0000c4
:101cb8000a2a0000207200006573000065740000a5
:101cc800292c00002076000065720000696600007b
:101cd8007920000074680000617400002041000051
:101ce8005644000044200000616e0000642000009b
:101cf8004156000053530000206100007265000047
:101d0800206300006f6e00006e65000063740000c1
:101d1800656400002e200000202000002a0a000030
:101d28002a2000004f6e0000207400006865000043
:101d380020500000494300003234000048330000be
:101d48003247000050320000303200002c200000e2
:101d58006e6f000074200000636f00006e6e00005c
:101d680065630000746900006e6700002041000090
:101d780056440000442000002020000020200000dd
:101d88002020000020200000202a00000a2a00004d
:101d980020700000726f0000647500006365000029
:101da800732000007468000069730000206d000053
:101db800657300007361000067650000206f000014
:101dc8006e6c000079200000617400002070000033
:101dd8006f770000657200002d750000702e0000fe
:101de80020200000202000002020000020200000eb
:101df80020200000202000002a0a00002a2a0000d3
:101e08002a2a00002a2a00002a2a00002a2a00007a
:101e18002a2a00002a2a00002a2a00002a2a00006a
:101e28002a2a00002a2a00002a2a00002a2a00005a
:101e38002a2a00002a2a00002a2a00002a2a00004a
:101e48002a2a00002a2a00002a2a00002a2a00003a
:101e58002a2a00002a2a00002a2a00002a2a00002a
:101e68002a2a00002a2a00000a0000004661000011
:101e78007374000020520000432000004f730000dc
:101e8800630a00000046000061730000742000002f
:101e980052430000204f00007363000020770000c9
:101ea8006974000068200000504c00004c0a0000d3
:101eb80000500000726900006d6100007279000036
:101ec800204f0000736300002028000058540000d1
:101ed8002c200000485300002c200000454300003f
:101ee800290a000000500000726900006d610000be
:101ef80072790000204f0000736300002028000062
:101f0800585400002c200000485300002c200000ea
:101f1800454300002920000077690000746800002c
:101f2800205000004c4c00000a00000053650000df
:101f3800636f00006e640000617200007920000089
:101f48004f730000630a0000004c00006f77000028
:101f5800205000006f7700006572000020520000da
:101f6800432000004f730000630a00000046000091
:101f7800617300007420000052430000204f0000ed
:101f8800736300002f310000360a0000004600008d
:101f9800617300007420000052430000204f0000cd
:101fa800736300002f4e00000a000000556e000009
:101fb8006b6e00006f7700006e2000006f730000ea
:101fc800636900006c6c0000617400006f720000af
:101fd8002074000079700000652e0000000a0000df
:101fe8004465000076690000636500002068000011
:101ff8006173000020620000656500006e2000002b
:10200800696e0000207300006c65000065700000b8
:10201800206d00006f640000650a0000000a0000df
:1020280044650000766900006365000020680000d0
:102038006173000020620000656500006e200000ea
:10204800696e000020690000646c000065200000d3
:102058006d6f0000646500000a0000000a5200006d
:10206800657300006574000020630000617500005e
:10207800736500003a200000005000006f770000f0
:10208800657200002d6f00006e2e00000a0000002f
:10209800536f0000667400007761000072650000ed
:1020a8002052000065730000657400002e0a0000cd
:1020b800005700006174000063680000646f00004e
:1020c80067200000546900006d6500006f7500000e
:1020d800743a0000200000000a0000004d43000090
:1020e8004c5200002061000073730000657200000c
:1020f800746900006f6e00002e0a000000420000a4
:10210800726f0000776e00002d6f0000757400007c
:102118002e0a0000005400007261000070200000c8
:10212800436f00006e6600006c6900006374000075
:102138002e0a0000004900006c6c00006567000072
:10214800616c0000204300006f6e000064690000ad
:10215800746900006f6e00002e0a00000043000042
:102168006f6e00006669000067750000726100000c
:10217800746900006f6e0000204d00006973000054
:102188006d61000074630000682e00000a00000002
:10219800556e00006b6e00006f7700006e20000027
:1021a8007265000073650000742e00000a000000cc
:1021b80045720000726f0000722000007472000007
:1021c8006170000070650000643a000020000000a3
:1021d80050720000696f0000726900007479000095
:1021e8003a200000002c0000205600006563000023
:1021f800746f0000722000006e7500006d620000b0
:10220800657200003a200000000a00000a00000081
:1022180045720000726f000072200000696e0000b5
:10222800202e00002e2f00006c690000622f000095
:1022380073720000632f00007069000063320000b1
:10224800345f000075740000696c00002e630000a4
:10225800206c0000696e0000652000003437000023
:10226800383a000020410000535300004552000056
:102278005428000075310000365f000062720000cb
:1022880067680000203c00003d2000003129000064
:1022980020660000616900006c650000642e000083
:1022a8000a00000045720000726f000072200000f2
:1022b800696e0000202e00002e2f00006c690000bf
:1022c800622f000073720000632f00007069000025
:1022d80063320000345f000075740000696c000010
:1022e8002e630000206c0000696e0000652000006d
:1022f80034380000343a00002041000053530000f5
:102308004552000054280000665f00006272000019
:10231800672000003c2000003635000035330000ff
:10232800352e000035290000206600006169000094
:102338006c650000642e00000a0000004572000071
:10234800726f000072200000696e0000202e0000ed
:102358002e2f00006c690000622f000073720000cd
:10236800632f00006461000074610000586600007b
:1023780065720000496d0000706c00002e6300005b
:10238800206c0000696e00006520000039300000f4
:102398003a20000041530000534500005254000009
:1023a80028460000414c0000534500002920000049
:1023b80066610000696c0000656400002e0a000078
:1023c80000450000727200006f7200002069000072
:1023d8006e2000002e2e00002f6c000069620000a5
:1023e8002f730000726300002f6400006174000006
:1023f8006158000066650000724900006d700000b9
:102408006c2e0000632000006c6900006e650000ff
:1024180020340000323800003a2000004153000008
:10242800534500005254000028460000414c00006b
:10243800534500002920000066610000696c000017
:10244800656400002e0a000000450000727200005a
:102458006f720000206900006e2000002e2e000020
:102468002f6c0000696200002f7300007263000087
:102478002f64000061740000615800006665000068
:10248800724900006d7000006c2e0000632000008f
:102498006c6900006e6500002034000034390000cb
:1024a8003a200000415300005345000052540000f8
:1024b80028460000414c0000534500002920000038
:1024c80066610000696c0000656400002e0a000067
:1024d80000450000727200006f7200002069000061
:1024e8006e2000002e2e00002f6c00006962000094
:1024f8002f730000726300002f64000061740000f5
:102508006158000066650000724900006d700000a7
:102518006c2e0000632000006c6900006e650000ee
:1025280020340000353900003a20000041530000f3
:102538005345000052540000286300005f6f0000fc
:10254800757400004368000061720000203d0000bf
:102558003d200000434d0000445f0000544f000040
:102568004b4500004e29000020660000616900000c
:102578006c650000642e00000a000000457200002f
:10258800726f000072200000696e0000202e0000ab
:102598002e2f00006c690000622f0000737200008b
:1025a800632f000064610000746100005866000039
:1025b80065720000496d0000706c00002e63000019
:1025c800206c0000696e00006520000034380000af
:1025d800383a0000204100005353000045520000e3
:1025e80054280000464100004c53000045290000d3
:1025f80020660000616900006c650000642e000020
:102608000a00000045720000726f0000722000008e
:10261800696e0000202e00002e2f00006c6900005b
:10262800622f000073720000632f000064610000d5
:10263800746100005866000065720000496d000072
:10264800706c00002e630000206c0000696e0000b2
:102658006520000035310000353a000020410000b7
:102668005353000045520000542800004641000022
:102678004c530000452900002066000061690000f5
:102688006c650000642e00000a000000457200001e
:10269800726f000072200000696e0000202e00009a
:1026a8002e2f00006c690000622f0000737200007a
:1026b800632f000064610000746100005866000028
:1026c80065720000496d0000706c00002e63000008
:1026d800206c0000696e000065200000353800009d
:1026e800393a0000204100005353000045520000d1
:1026f80054280000464100004c53000045290000c2
:1027080020660000616900006c650000642e00000e
:102718000a0000006e6f0000206500007272000061
:102728006f720000007200006570000065610000b3
:102738007465000064200000636f00006d6d000088
:10274800616e000064000000746900006d6500009f
:102758006f75000074000000696e00007465000069
:10276800727200007570000074650000642000003b
:10277800636f00006d6d0000616e00006400000072
:10278800756e0000737000006563000069660000e4
:102798006965000064200000696e0000646500003f
:1027a80078000000696e0000646500007820000071
:1027b800746f00006f2000006869000067680000ff
:1027c800007600006172000069610000626c000020
:1027d80065200000736900007a650000206d000024
:1027e800697300006d6100007463000068000000f8
:1027f8007265000061640000206f00006e6c0000cc
:1028080079200000766100007269000061620000b2
:102818006c650000006900006c6c000065670000d2
:10282800616c0000207600006172000069610000a0
:10283800626c000065200000737000006563000092
:10284800696600006963000061740000696f000038
:102858006e00000045720000726f000072200000d8
:10286800696e0000202e00002e2f00006c69000009
:10287800622f000073720000632f00006461000083
:10288800746100005866000065720000496d000020
:10289800706c00002e630000206c0000696e000060
:1028a8006520000036310000333a00002041000066
:1028b80053530000455200005428000028720000bd
:1028c80065630000656900007665000045720000d8
:1028d800726f0000722000003e20000030290000c6
:1028e80020260000262000002872000065630000f2
:1028f800656900007665000045720000726f00008f
:10290800722000003c2000004e5500004d5f000082
:1029180045520000524f0000525f0000434f000034
:10292800444500005329000029200000666100008a
:10293800696c0000656400002e0a000000000000b9
:1029480045720000726f000072200000696e00007e
:10295800202e00002e2f00006c690000622f00005e
:1029680073720000632f000064610000746100004e
:1029780058660000657200002e630000206c00009d
:10298800696e000065200000343200003a20000023
:1029980041530000534500005254000028750000c0
:1029a8005f76000061720000496e000064650000f7
:1029b800782000003c20000036320000292000006a
:1029c80066610000696c0000656400002e0a000062
:1029d80000450000727200006f720000206900005c
:1029e8006e2000002e2e00002f6c0000696200008f
:1029f8002f730000726300002f64000061740000f0
:102a08006158000066650000722e00006320000017
:102a18006c6900006e65000020340000343a000044
:102a28002041000053530000455200005428000084
:102a3800707600005f64000061740000612000008f
:102a4800213d0000203000002920000066610000c0
:102a5800696c0000656400002e0a00000045000053
:102a6800727200006f720000206900006e20000082
:102a78002e2e00002f6c0000696200002f730000ea
:102a8800726300002f640000617400006158000048
:102a980066650000722e0000632000006c6900006b
:102aa8006e65000020340000363a00002041000026
:102ab80053530000455200005428000028750000b8
:102ac8005f730000697a0000652000003e20000066
:102ad800302900002026000026200000287500006c
:102ae8005f730000697a0000652000003c3d00002b
:102af8002028000028320000353500002920000079
:102b08002b20000031290000292900002066000040
:102b1800616900006c650000642e00000a00000076
:102b280045720000726f000072200000696e00009c
:102b3800202e00002e2f00006c690000622f00007c
:102b480073720000632f000064610000746100006c
:102b580058660000657200002e630000206c0000bb
:102b6800696e000065200000393300003a2000003b
:102b780041530000534500005254000028750000de
:102b88005f76000061720000496e00006465000015
:102b9800782000003c200000363200002920000088
:102ba80066610000696c0000656400002e0a000080
:102bb80000450000727200006f720000206900007a
:102bc8006e2000002e2e00002f6c000069620000ad
:102bd8002f730000726300002f640000617400000e
:102be8006158000066650000722e00006320000036
:102bf8006c6900006e650000203100003030000074
:102c08003a20000041530000534500005254000090
:102c180028700000586600006572000056610000c8
:102c2800722d00003e700000753800005f640000df
:102c38006174000061200000213d00002030000088
:102c48002920000066610000696c000065640000ce
:102c58002e0a00000044000061740000612000009a
:102c68007265000063650000697600006520000059
:102c780065720000726f0000723a000020000000c8
:102c880055410000525400003120000070610000de
:102c980072690000747900002065000072720000fb
:102ca8006f7200000a0000005541000052540000f5
:102cb8003120000066720000616d0000696e00003e
:102cc8006720000065720000726f0000720a000041
:102cd800005500004152000054310000206f0000f0
:102ce8007665000072720000756e000020650000b5
:102cf800727200006f7200000a0000004572000046
:102d0800726f000072200000696e0000202e000023
:102d18002e2f00006c690000622f00007372000003
:102d2800632f00007069000063320000345f000008
:102d380075610000727400002e630000206c0000b2
:102d4800696e00006520000033360000313a00004b
:102d58002041000053530000455200005428000051
:102d680075330000325f0000626100007564000086
:102d78005261000074650000203e00003d20000004
:102d880031300000303000004c290000206600007f
:102d9800616900006c650000642e00000a000000f4
:102da80055410000525400003220000070610000bc
:102db80072690000747900002065000072720000da
:102dc8006f7200000a0000005541000052540000d4
:102dd8003220000066720000616d0000696e00001c
:102de8006720000065720000726f0000720a000020
:102df800005500004152000054320000206f0000ce
:102e08007665000072720000756e00002065000093
:102e1800727200006f7200000a0000004572000024
:102e2800726f000072200000696e0000202e000002
:102e38002e2f00006c690000622f000073720000e2
:102e4800632f00007069000063320000345f0000e7
:102e580075610000727400002e630000206c000091
:102e6800696e00006520000037350000313a000027
:102e78002041000053530000455200005428000030
:102e880075330000325f0000626100007564000065
:102e98005261000074650000203e00003d200000e3
:102ea80031300000303000004c290000206600005e
:102eb800616900006c650000642e00000a000000d3
:102ec80045720000726f000072200000696e0000f9
:102ed800202e00002e2f00006c690000622f0000d9
:102ee80073720000632f00007069000063320000f5
:102ef800345f00007365000072690000616c0000b7
:102f08002e630000206c0000696e00006520000040
:102f1800383100003a200000496e00007661000058
:102f28006c69000064200000554100005254000004
:102f3800003000007800000045720000726f000049
:102f480072200000696e0000202e00002e2f000065
:102f58006c690000622f000073720000632f00008c
:102f68007069000063320000345f00007365000080
:102f780072690000616c00002e630000206c000084
:102f8800696e00006520000032390000363a000002
:102f9800204900006e760000616c00006964000042
:102fa8002055000041520000540000004572000006
:102fb800726f000072200000696e0000202e000071
:102fc8002e2f00006c690000622f00007372000051
:102fd800632f00007069000063320000345f000056
:102fe8007365000072690000616c00002e630000c8
:102ff800206c0000696e000065200000333300007b
:10300800353a0000204900006e760000616c00002f
:10301800696400002055000041520000540000007f
:1030280050c3000030750000204e0000102700003b
:1030380088130000b80b0000d0070000e803000068
:10304800f40100002c010000c8000000640000002a
:10305800320000001e000000140000000a000000fa
:10306800050000000300000002000000010000004d
:103078000503000002010000321e0000140a0000cf
:103088000503000002010000050300000201000022
:10309800050300000201000045720000726f000085
:1030a80072200000696e0000202e00002e2f000004
:1030b8006c690000622f000073720000632f00002b
:1030c8007069000063320000345f0000746900001a
:1030d8006d650000722e0000632000006c6900001e
:1030e8006e65000020350000383a000020410000dd
:1030f800535300004552000054280000665f00004a
:1031080074690000636b0000732000003c2000001d
:103118003635000035330000352e00003529000013
:1031280020660000616900006c650000642e0000e4
:103138000a00000045720000726f00007220000053
:10314800696e0000202e00002e2f00006c69000020
:10315800622f000073720000632f00007069000086
:1031680063320000345f0000746900006d65000080
:10317800722e0000632000006c6900006e6500007c
:1031880020370000363a0000204100005353000069
:103198004552000054280000665f00007469000072
:1031a800636b0000732000003c20000036350000ef
:1031b80035330000352e0000352900002066000058
:1031c800616900006c650000642e00000a000000c0
:1031d80045720000726f000072200000696e0000e6
:1031e800202e00002e2f00006c690000622f0000c6
:1031f80073720000632f00007069000063320000e2
:10320800345f0000746900006d650000722e0000d4
:10321800632000006c6900006e650000203100002a
:10322800363000003a2000004153000053450000aa
:103238005254000028750000385f00005443000015
:103248004b500000532000003c3d0000203300009c
:103258002920000066610000696c000065640000b8
:103268002e0a0000000000000a0a0000596f000042
:1032780075720000206300006c6f0000636b000033
:1032880020630000686f000069630000652000008b
:1032980066610000696c000065640000207400002d
:1032a8006f200000696e0000697400006961000009
:1032b8006c6900007a6500002e200000536500004c
:1032c800652000002e2e00002f6c000069620000af
:1032d8002f730000726300002f7000006963000004
:1032e800323400005f6300006c6f0000636b000005
:1032f80066720000657100002e630000206c0000fb
:10330800696e0000652000003230000033200000a4
:10331800666f0000722000006d6f0000726500008b
:103328002064000065740000616900006c7300008f
:103338002e0000002e2e00002e2000002d2d000053
:103348002d2000002e2e00002e00000045720000e7
:10335800726f000072200000696e0000202e0000cd
:103368002e2f00006c690000622f000073720000ad
:10337800632f00007069000063320000345f0000b2
:10338800636c00006f6300006b66000072650000ec
:10339800712e0000632000006c6900006e6500005b
:1033a80020320000323000003a2000004153000073
:1033b800534500005254000028750000385f000093
:1033c800736f00007572000063650000203c000008
:1033d800203800002920000066610000696c0000a8
:1033e800656400002e0a000000000000457200001d
:1033f800726f000072200000696e0000202e00002d
:103408002e2f00006c690000622f0000737200000c
:10341800632f00007069000063320000345f000011
:10342800666c000061730000682e000063200000d5
:103438006c6900006e650000203200003032000028
:103448003a20000041530000534500005254000048
:1034580028750000313600005f6c0000656e0000c2
:10346800203c00003d200000464c00004153000075
:10347800485f0000504100004745000042590000e5
:1034880054450000532900002066000061690000cf
:103498006c650000642e00000a0000004572000000
:1034a800726f000072200000696e0000202e00007c
:1034b8002e2f00006c690000622f0000737200005c
:1034c800632f00007069000063320000345f000061
:1034d800666c000061730000682e00006320000025
:1034e8006c6900006e650000203200003531000074
:1034f8003a20000041530000534500005254000098
:1035080028750000313600005f6c0000656e000011
:10351800203c00003d200000464c000041530000c4
:10352800485f000050410000474500004259000034
:10353800544500005329000020660000616900001e
:103548006c650000642e00000a000000493200008b
:1035580043310000205300007461000072740000c1
:10356800004900003243000031200000525300009f
:1035780074610000727400000049000032430000ca
:1035880031200000537400006f70000000490000f3
:103598003243000031200000507500007400000024
:1035a800493200004350000055540000312c0000ff
:1035b800204e0000414b000020720000657400009e
:1035c800757200006e650000642e0000004900005e
:1035d80032430000312000004765000074000000fd
:1035e800007e0000014b0000467f0000ff02000043
:1035f800102500000a2e00002e2f00007069000020
:10360800635f0000736c000061760000655f000076
:1036180074650000737400002e6300002c20000005
:1036280062750000696c0000742000006f6e000075
:1036380020410000756700002020000038200000ad
:103648003230000031380000206100007420000092
:10365800313000003a330000303a000034350000c1
:103668000a000000535000004931000020520000b9
:10367800656300006569000076650000204f000062
:1036880076650000726600006c6f0000770a000023
:10369800005300005049000032200000526500002d
:1036a8006365000069760000652000004f76000021
:1036b80065720000666c00006f7700000a00000069
:1036c80073740000646900006e00000073740000e9
:1036d800646f0000757400000073000074640000db
:1036e8006572000072000000636f00006e760000d3
:1036f8006572000074410000444300003128000056
:043708002900000094
:020000040000fa
:10370c000600fa00000f7800110798004247980055
:10371c001e00780010017800e1ff2f00810061008d
:10372c00010878001e00780010017800d1ff2f00ee
:10373c0081006100010878009e009000f07f20005d
:10374c00008160001e007800f17f20008100610084
:10375c00c208dd009001780032002e000281610069
:10376c0082807000010878001e0078001001900023
:10377c0001002f0081006100110098001e007800ec
:10378c0020019000f13f2000810061002100980091
:10379c001e00780020019000f1df2f0081006100f5
:1037ac00210098001e00780020019000f1ef2f00fe
:1037bc0081006100210098001e007800200190001b
:1037cc00f1fe2f0081006100210098004e40900016
:1037dc00ef4060001e0078008180fb00ef806000ed
:1037ec00a001900002ff2f00028161008280700016
:1037fc00210098000080fa00000006000800fa0082
:10380c00000f780012079800230798006147980072
:10381c001e007800900078000100a00001087800dc
:10382c001e00780010017800d1ff2f00810061008c
:10383c00010878001e009000ae0090004208de00e7
:10384c0080007800f07f200080806000f07f2000f6
:10385c0000806000f17f2000010060009e00780075
:10386c00f27f2000020060004200dd009101780030
:10387c0032002e0002816100020070008008780086
:10388c001e009000ae0090004a09dd004600de00ec
:10389c0000007100c608de0080007800f0ff2000f8
:1038ac0080806000f0ff200000806000f1ff2000ad
:1038bc00010060009e007800f2ff20000200600012
:1038cc009101900002002f00028161000200700043
:1038dc00900098001e00900000407800f043b20069
:1038ec00f043b200f043b2009e0078000080fb0071
:1038fc004a00dd00a1019000f23f2000028161002e
:10390c0002007000a00098001e00780020019000ba
:10391c00f1df2f0081006100210098001e0078006b
:10392c0020019000f1ef2f00810061002100980030
:10393c001e00780020019000f1fe2f008100610034
:10394c00210098006e409000ef4060001e0078004f
:10395c008180fb00ef806000a001900002ff2f002f
:10396c000281610082807000210098000080fa00c2
:10397c00000006000a00fa00400798004e00900074
:10398c00100078004200de00f17f20000100600092
:10399c008000eb00008fbe001e00be00c200dd00e8
:1039ac000000200020079800310798004e0090007e
:1039bc0090009000f0ff2000008060008000eb0081
:1039cc00008fbe001e00be004609dd00ca01de00ed
:1039dc00830171004601dd002e009000be009000b6
:1039ec0000017100818171004e0090002000900058
:1039fc004a00de00004078000080fb008000eb00f5
:103a0c000000710081807100200798003107980038
:103a1c002e009000be0090000080fa00000006000e
:103a2c000000fa00c05f240090208800000c2000e9
:103a3c00802088000080fa00000006000200fa00d6
:103a4c00004f78009e4078007fcf60001e407800c9
:103a5c00ef4f50000b0036009e40780070cf5000a6
:103a6c001e80fb00110020000008dd000080ea0031
:103a7c0080007800102180000080600010218800f8
:103a8c00080037001e80fb00110020000008dd003c
:103a9c000080ea0080007800002180000080600037
:103aac00002188000080fa00000006000200fa00e5
:103abc00004f78009e4078007fcf60001e40780059
:103acc00ef4f50000a0036009e40780070cf500037
:103adc001e80fb00110020000008dd0080407800f3
:103aec00102180000040780000c060000700370003
:103afc001e80fb00110020000008dd0080407800d3
:103b0c00002180000040780000c060000080fa00b6
:103b1c00000006000000fa002024ef002224ef0031
:103b2c002824ef002a24ef000080fa000000060091
:103b3c000400fa00004f78001147980022479800c3
:103b4c009e40780067cf60001e80fb00e30f5000a2
:103b5c004c003200e30f500007003c00e10f500016
:103b6c0020003200e10f500032003c000000e00069
:103b7c000800320093003700e50f50006900320056
:103b8c00e50f500053003500e60f5000790032006d
:103b9c008c0037001e409000614060000080fb00ec
:103bac00610060004700dd0082218000f1f72f00ea
:103bbc008100610001007000802188002e4090007f
:103bcc00634060000080fb00630060008221800085
:103bdc00c1ff2f008100610001007000802188006e
:103bec008c0037001e409000614060000080fb009c
:103bfc004f00dd0082218000f1ff27008100610071
:103c0c0001007000802188002e409000634060000d
:103c1c000080fb00630060004800dd008221800012
:103c2c00f1cf2f008100610001007000802188001d
:103c3c00780037001e409000614060000080fb005f
:103c4c00610060004700dd0092218000f1f72f0039
:103c5c008100610001007000902188002e409000ce
:103c6c00634060000080fb006300600092218000d4
:103c7c00c1ff2f00810061000100700090218800bd
:103c8c00640037001e409000614060000080fb0023
:103c9c004f00dd0092218000f1ff270081006100c0
:103cac0001007000902188002e409000634060005d
:103cbc000080fb00630060004800dd009221800062
:103ccc00f1cf2f008100610001007000902188006d
:103cdc00500037001e409000614060000080fb00e7
:103cec00610060004700dd00a2218000f1f72f0089
:103cfc008100610001007000a02188002e4090001e
:103d0c00634060000080fb0063006000a221800023
:103d1c00c1ff2f008100610001007000a02188000c
:103d2c003c0037001e409000614060000080fb00aa
:103d3c004f00dd00a2218000f1ff2700810061000f
:103d4c0001007000a02188002e40900063406000ac
:103d5c000080fb00630060004800dd00a2218000b1
:103d6c00f1cf2f008100610001007000a0218800bc
:103d7c00280037001e409000614060000080fb006e
:103d8c00610060004700dd00b2218000f1f72f00d8
:103d9c008100610001007000b02188002e4090006d
:103dac00634060000080fb0063006000b221800073
:103dbc00c1ff2f008100610001007000b02188005c
:103dcc00140037001e409000614060000080fb0032
:103ddc004f00dd00b2218000f1ff2700810061005f
:103dec0001007000b02188002e40900063406000fc
:103dfc000080fb00630060004800dd00b221800001
:103e0c00f1cf2f008100610001007000b02188000b
:103e1c00000000000080fa00000006000200fa001a
:103e2c00004f78009e40780067cf60001e80fb003a
:103e3c00e30f500016003200e30f500007003c0067
:103e4c00e10f50000e003200e10f50000e003c005c
:103e5c000000e0000800320015003700e50f5000ac
:103e6c000f003200e50f50000b003500e60f50003c
:103e7c000d0032000e0037003064a8000e00370031
:103e8c003164a8000c0037003264a8000a00370027
:103e9c003364a800080037003464a800060037001b
:103eac003564a800040037003664a800020037000f
:103ebc003764a800000000000080fa000000060033
:103ecc000200fa00004f78009e40780067cf600037
:103edc001e80fb00e30f50001c003200e30f50006b
:103eec0007003c00e10f500010003200e10f5000c1
:103efc0012003c000000e0000800320023003700f4
:103f0c00e50f500019003200e50f5000130035008a
:103f1c00e60f5000190032001c0037008021800091
:103f2c004300de00614060001b00370080218000f0
:103f3c004b00de00614060001700370090218000cc
:103f4c004300de00614060001300370090218000c8
:103f5c004b00de00614060000f003700a0218000a4
:103f6c004300de00614060000b003700a0218000a0
:103f7c004b00de006140600007003700b02180007c
:103f8c004300de006140600003003700b021800078
:103f9c004b00de00614060000080fa00000006006b
:103fac001c00fa0020579800220f9800330f98003d
:103fbc00015f9800145f9800255f98002e509000c8
:103fcc006f406000205798001e5890006f406000b2
:103fdc00105f98002e58900067406000205f98009a
:103fec002e5090000080fb000000400000004000bc
:103ffc008000780000442000008f40001e80e80004
:10400c00100798002e5090000080fb004300de004b
:10401c00004078000080fb00000040008000780029
:10402c008041200000804000200798002e50900016
:10403c000080fb004200de00004078000080fb00a6
:10404c00000040008000780000422000008040000a
:10405c00300798000004a8000e5890000004e000ff
:10406c001b0032002e089000be0890004208de00b3
:10407c0080007800f07f20000080600040079800ee
:10408c002e089000be0890004008de00000078006a
:10409c006300600050079800ae089000610798001c
:1040ac004e009000c500dd005e0090000100700025
:1040bc00800078000130a0001e0078000108780014
:1040cc001e009000ee009000010878000b003700f5
:1040dc00ae089000f07f2000008060004007980040
:1040ec004e009000c500dd001e007800010878002d
:1040fc001e0090008000eb00010878002e5090000c
:10410c00e3406000200020000008dd00604f9800b4
:10411c006e4890000080fb00f10020000008dd00dc
:10412c000080ea00000f98003e009000900078009c
:10413c000e089000808060001e5890000081fb00eb
:10414c006e4890000080fb000010dd0081007000c4
:10415c003e009000010878002e50900067406000ef
:10416c0000404000604f98006e4890000080fb00bb
:10417c00310020000008dd000080ea00000f9800ec
:10418c002e009000900078000e0890008080600057
:10419c002e5890000081fb006e4890000080fb00c0
:1041ac000010dd00810070002e00900001087800e6
:1041bc002e5090000080fb00110020000008dd0054
:1041cc0080007800a020800001007000a0208800f2
:1041dc000004a9000080fa00000006001200fa009a
:1041ec00204f9800620798007307980001579800b9
:1041fc00145798002e4890000080fb0000004000ef
:10420c00000040008000780000432000008f400038
:10421c001e80e800100798000004a8000e509000c3
:10422c000004e000250032006e009000fe009000bb
:10423c004208de0080007800f07f200000806000e3
:10424c00200798006e009000fe0090004008de00f1
:10425c00000078006300600030079800ee009000ca
:10426c00410798001e5090000004e0000900320045
:10427c002e009000c500dd003e0090000100700093
:10428c00800078000130a0001e0078000108780042
:10429c00060037002e009000c500dd003e009000a7
:1042ac00810070001e007800010878001e0090004c
:1042bc00ce0090000108780015003700ee00900049
:1042cc00f07f200000806000200798001e509000b6
:1042dc000004e000070032002e0090004500dd00d5
:1042ec00800078000130a0001e00780001087800e2
:1042fc00040037002e009000c500dd001e00780081
:10430c00010878001e0090008000eb000108780086
:10431c000004a9000080fa00000006000400fa0066
:10432c00004f7800110798001e4078000004e00050
:10433c0002003a001e009000440207000080fa00c0
:10434c00000006000000fa000028ef000228ef0031
:10435c000080fa00000006000400fa00004f78000c
:10436c001107980000408000e10f5000120032004d
:10437c00e10f500003003900e20f5000260032001c
:10438c003c003700a0cab3009e40780080cf50009c
:10439c00050032001e0090001e487800100020001e
:1043ac0010408800370037001000200000408800c3
:1043bc000228ef00330037001e00fb00a1fa2f008b
:1043cc00810f500003003200e40f40000400320063
:1043dc000a00370020002000004088000d00370044
:1043ec001e009000a1cab300014878001000200004
:1043fc00104088000028ef00060037001e009000d7
:10440c001e48780020002000104088000028ef0093
:10441c00000000001b0037001e00fb00a1fa2f005b
:10442c00810f500009003200e40f40000a003a00ee
:10443c0020002000104088000028ef001e00900093
:10444c00a1cab300014878000900370040002000e1
:10445c0010408800060037001e0090001e487800af
:10446c0030002000104088000028ef000000000001
:10447c0004003700211a29000040eb00a7ff0700b9
:10448c0000000000104080000080fa0000000600d0
:10449c000000fa00204080000080fa0000000600b6
:1044ac000000fa0006c8bf000080fa0000000600f9
:1044bc000000fa00404080000080fa000000060076
:1044cc000200fa0051408000010f78000a28ef002a
:1044dc001e0078000080fa00000006000000fa00c0
:1044ec000428ef000a28ef0096ff07000080fa006e
:1044fc00000006000000fa000a28ef000080fa0015
:10450c00000006000000fa00820f20008000eb0083
:10451c0000932000d0f40700820020008000eb0004
:10452c0080a22000ccf407000080fa0000000600f6
:10453c000000fa00204080000000e00009003a0072
:10454c00504080000000e00006003a00414080002e
:10455c00f00f2000808f500002003a001000200065
:10456c00010037000000eb00004078000080fa00ea
:10457c00000006000000fa00204080000000e0006f
:10458c0009003a00504080000000e00006003a00ac
:10459c0041408000f00f2000808f5000020032005c
:1045ac0010002000010037000000eb0000407800f4
:1045bc000080fa00000006000200fa00004f7800ac
:1045cc001e4078000080fb004200de0000407800b6
:1045dc000080fb000080fa00000006000200fa00d8
:1045ec00004f78001e00fb00630060000000e80034
:1045fc000080fa00000006000200fa000000eb0048
:10460c00000f780041408000d0032000808f5000c4
:10461c000500360050002000504088000428ef00b0
:10462c000000eb001700370040408000c200dd00a6
:10463c000093200000804000100f78001e007800ce
:10464c000000e00005003a004000200050408800c7
:10465c000428ef000000eb000a0037004040800007
:10466c002e0007000004e00005003a007000200056
:10467c00504088000428ef000000eb0001003700d8
:10468c001e0078000080fa00000006000800fa0006
:10469c0020079800614798002e0090004300de0030
:1046ac00000f78002e0090006700600011002000c1
:1046bc000008dd00204798006e4090000004e000e8
:1046cc000900320080a220001e00400090407800bb
:1046dc002e40900080c0700080a220001e00400080
:1046ec00014878000b00370080a220001e0040001b
:1046fc0010407800804078002e40900000c0ea0006
:10470c0000c060008040780080a220001e004000a5
:10471c00014878000080fa00000006000600fa004c
:10472c00200798002e0090004300de00000f780058
:10473c002e00900067006000110020000008dd00d2
:10474c002047980080a220001e0040009040780076
:10475c002e40900000c060000080fb000000ea00ca
:10476c004f00de00004078000080fa0000000600d8
:10477c000200fa00000f7800404080004200dd008b
:10478c008080e800009320000080400010407800fa
:10479c008080fb001e00e900808f50000500320075
:1047ac0060002000504088000428ef000040eb001f
:1047bc000100370010c0b3000080fa0000000600b2
:1047cc000000fa00204080000000e00003003200ee
:1047dc0042ff07002000200050408800504080001d
:1047ec000080fa00000006000400fa002047980040
:1047fc00618020002e409000d7fe0700000f78004b
:10480c001e007800e20f50001c003200e20f500036
:10481c0005003e000000e00008003200e10f5000ef
:10482c00220032001d003700e30f50000a00320056
:10483c00e40f50000d0032001800370020408000bb
:10484c000000e00002003a00100020002040880028
:10485c0050408000ab003700100020005040880012
:10486c0020002000000f78001300370010002000fb
:10487c005040880050408000a2003700204080004b
:10488c00e10f50000b003200300020005040880037
:10489c00100020002040880007003700511e29001e
:1048ac000040eb009dfe07000300370000000000f5
:1048bc00010037000000000020408000e20f500093
:1048cc0061003200e20f500005003e000000e000e5
:1048dc0008003200e10f5000150032007f00370055
:1048ec00e30f500067003200e40f500070003200fc
:1048fc007a0037001e007800e10f500007003a00e4
:10490c0050408000e20f5000010032000a28ef00f6
:10491c00f00f20004040880004003700912229004d
:10492c000040eb007dfe0700000000007400370023
:10493c001e007800e10f500003003200e20f50001f
:10494c00100032003b00370061802000914078005d
:10495c00a0cab30000c068000080fb000000e900a2
:10496c004f00de0000407800d12629006bfe0700c6
:10497c000428ef000a28ef00f00f200040408800c8
:10498c003000370006c8bf000000fb00e30f4000fa
:10499c0008003200e30f400003003c00e40f40002d
:1049ac000b0032000e003700e10f40000c003c0001
:1049bc000300370030002000204088001c00370026
:1049cc000428ef00800020005040880018003700b9
:1049dc00212c29000040eb0050fe0700140037008a
:1049ec0006c8bf00f4fe07004040880006c8bf00a0
:1049fc00fafe070060408800fffe07007040880048
:104a0c00704080000000e00001003a000800370010
:104a1c006040800056ff07000004e00001003a00ef
:104a2c000300370020002000204088000000000018
:104a3c0004003700613029000040eb0037fe07000e
:104a4c00000000002e0037007040800061802000c4
:104a5c0091407800014878000000e8007040880020
:104a6c00604080000000e9006040880060408000e9
:104a7c000000e0001d003a000a28ef000428ef00b7
:104a8c001f00370006c8bf000000fb004040880034
:104a9c00d9fe070070408800704080000000e000e4
:104aac001400320040002000204088001400370021
:104abc0006c8bf000080fb000000e80060408800d2
:104acc00604080002aff07000004e0000b00320069
:104adc00200020002040880009003700a134290064
:104aec000040eb000dfe0700050037000000000041
:104afc000300370000000000010037000000000038
:104b0c00504080000080fa00000006000000fa000f
:104b1c00504080000000e000050032005040800052
:104b2c00e80f500002003e0010002000010037008a
:104b3c000000eb0000407800e1422900f7fd07007f
:104b4c00504080008000400080a520000080400084
:104b5c00100078000080fa00000006000000fa0047
:104b6c00f90907000080fa00000006000400fa00b2
:104b7c00004f7800110798001e4078000004e000f8
:104b8c0002003a001e009000300007000080fa007e
:104b9c00000006000000fa002d23a800c9e2a900bd
:104bac00cfe2a9006960a900cfe2a80000a821000b
:104bbc0061002000e0408800f1408800cde2a900af
:104bcc000080fa00000006000000fa00e0408000bf
:104bdc00f140800061005000e0805800e040880007
:104bec00f1408800e0408000f1408000e00f500070
:104bfc00e08f580005003a000600070000a82100cd
:104c0c0061002000e0408800f14088000080fa003c
:104c1c00000006000000fa00601680000080ea0028
:104c2c004f00de00004078000080fb004f00dd00ec
:104c3c0062168000f1ff2700810061000100700006
:104c4c00601688000080fa00000006000200fa00de
:104c5c00000f7800004180000000e00003003a00e3
:104c6c009e007800014188000000fe000080fa00e0
:104c7c00000006000600fa001007980021079800b3
:104c8c009e009000010f78001e009000ae00900076
:104c9c004008de000040780032e0b7001e007800cb
:104cac001080ba008000eb00c001dd000200200083
:104cbc001e0078001000ba008000eb0000007100ac
:104ccc00818071000080fa00000006000e00fa00de
:104cdc0000002000f10f2000e6ff070030079800cd
:104cec004107980020002000f10f2000e1ff070091
:104cfc00500798006107980010c0b300004f78006f
:104d0c0020c628001007980020c62800200798000d
:104d1c003e019000ce019000d067200001002000e1
:104d2c00800f5100818f590003003a00a0c6280063
:104d3c0010079800020037000040eb00004f78008d
:104d4c005e009000ee009000220023000300200083
:104d5c00820f5000838f58000d0032003200230068
:104d6c0003002000820f5000838f58000b0032008c
:104d7c001200230003002000820f5000838f580084
:104d8c0009003a00a0c72800200798000600370049
:104d9c00d0c72800200798000300370000c828005f
:104dac00200798000000000030c828007d03070091
:104dbc003e009000ce009000ff03070000c92800c1
:104dcc00780307001e0090007603070030c9280006
:104ddc00740307005e009000ee009000f6030700dd
:104dec0000c928006f0307002e0090006d03070018
:104dfc0000ca28006b0307001e4078000004e00086
:104e0c0002003a0030ca2800660307000080fa004e
:104e1c00000006000000fa00103a80004c00de0092
:104e2c00674060000080fb00e30f50001b00320065
:104e3c00e30f500007003c00e10f5000110032005e
:104e4c00e10f500012003c000000e0000a003200ac
:104e5c0021003700e50f500016003200e50f50001e
:104e6c0011003500e60f500015003200e70f50001e
:104e7c001600320018003700a0f328004903070081
:104e8c001800370070f4280046030700150037009f
:104e9c00d0f52800430307001200370070f72800f4
:104eac00400307000f003700a0f928003d0307005e
:104ebc000c00370090fa28003a030700090037006d
:104ecc00b0fb28003703070006003700b0fc2800b1
:104edc003403070003003700a0fd28005bff070028
:104eec00000000000080fa00000006000200fa003a
:104efc000040eb00004f7800003a80006800600032
:104f0c000000e0000300320030ff280025030700fa
:104f1c004067a900003a8000640060000000e000d7
:104f2c0003003200300129001e0307004047a9008e
:104f3c00200329001b030700003a80006100600079
:104f4c000000e0000c00320010c0b300004f7800ed
:104f5c0010042900130307004007a9004027a900eb
:104f6c002028ef002228ef00408220008000eb0078
:104f7c00010878004d003700013a80000004200041
:104f8c00008060000000e00006003200c004290030
:104f9c000403070010c0b300004f780040c7a900fd
:104fac0040e7a900003a8000700060000000e000bb
:104fbc000d00320010c0b300004f7800d00529005e
:104fcc00f8020700104180000000e00002003200ef
:104fdc0010418000f302070000072900f1020700ce
:104fec004087a90040e7a900013a80000008200092
:104ffc00008060000000e0000500320010c0b3002b
:10500c00004f780020072900e602070040e7a900be
:10501c00003a8000620060000000e00005003200f1
:10502c0010c0b300004f780030082900dd020700e3
:10503c004027a900013a8000000028000080600091
:10504c000000e0000500320010c0b300004f7800f3
:10505c00f0082900d302070041e7a900013a8000bb
:10506c0000002400008060000000e0000500320019
:10507c0010c0b300004f7800f0092900c9020700e6
:10508c0041c7a900013a8000002020000080600088
:10509c000000e0000500320010c0b300004f7800a3
:1050ac00300b2900bf0207004127a9001e407800e1
:1050bc000004e00002003a00c00c2900b90207000d
:1050cc00004180000000e00019003200c00d2900f2
:1050dc00b402070000418000b202070040822000a9
:1050ec00100078000000e0000b003200c00e290018
:1050fc00ac020700204180004800de006f406000d9
:10510c0016030700700f2900a6020700204180003b
:10511c000074a1001103070090102900a1020700e0
:10512c002028ef00408220008000eb00010878006e
:10513c00e6fe070037ff07000080fa0000000600bb
:10514c000200fa00000f780092fe070083fe0700b1
:10515c000040280031002000e903070063ff07002e
:10516c001e0078008f0207000080fa000000060085
:10517c000800fa00881f7800200798003107980073
:10518c002e009000be009000b5f00700008fbe000e
:10519c001e00be00cdf007000001be002e009000e6
:1051ac00be009000fbef070018c0b3000200200007
:1051bc0003f02300a6f007000000e000010035001a
:1051cc000044eb000804e000020032001e00be00a8
:1051dc000400370012002000030020003e004100b4
:1051ec00ae8049004f0478000080fa0000000600f1
:1051fc000600fa00881f7800100798002107980015
:10520c001e009000ae00900095f00700000f780093
:10521c001e0078008000eb00acf007000001be001f
:10522c001e009000ae009000daef070018c0b3002b
:10523c000200200003f0230085f007000000e000ce
:10524c00010035000044eb000804e00002003200cd
:10525c001e007800010037001e00e8004f047800a3
:10526c000080fa00000006000e00fa00889fbe00c5
:10527c0020079800310798004207980054079800bf
:10528c006507980010c0b300ce009000e18f50006d
:10529c00010036000040eb00c110290033fe07006e
:1052ac004e0090000000e00012003a002e0090002a
:1052bc00be00900085f007000004be005e00900068
:1052cc00ee00900081f007000001be000800be0057
:1052dc000ef0070002002000031824000bf007005a
:1052ec000200200003f82300aaef0700008fbe0085
:1052fc00110037002e009000be00900073f00700e4
:10530c000004be005e009000ee0090006ff00700fd
:10531c000001be000800be00fcef070002002000e8
:10532c0003082400f9ef07000200200003f8230013
:10533c0098ef0700008fbe0018c0b30002f82f00d2
:10534c00f37724001e00be0041f007000000e000cf
:10535c00010035000044eb0061152900084078007d
:10536c0002fe07001e00be00a1ff07004f04be0096
:10537c000080fa00000006000200fa00000f78001e
:10538c0080408800000000000000000000000000c9
:10539c000000000000000000000000000000000001
:1053ac0000000000000000000000000000000000f1
:1053bc0000000000000000000000000000000000e1
:1053cc0000000000000000000000000000000000d1
:1053dc0000000000000000000000000000000000c1
:1053ec0000000000000000000000000000000000b1
:1053fc0000000000000000000000000000000000a1
:10540c000000000000000000000000000000000090
:10541c0000000000000000001028ed00d9ff3a0049
:10542c000080fa00000006000000fa002d63a800be
:10543c00c9a2a800cfa2a90069a0a900cfa2a80068
:10544c0010002000ccff07000080fa0000000600ce
:10545c000000fa0061a0a80061058000f0ff2800a0
:10546c000080600000d0a0006005880069a0a90041
:10547c008660a90061058000f0ff280000806000b4
:10548c0000c0a000600588009660a8002c03a8004e
:10549c00c002a900c602a9006840a9000080fa0059
:1054ac00000006000600fa0010079800414798001b
:1054bc000040eb00004f7800090037001e00900000
:1054cc00104078001e4068000080fb000183200023
:1054dc00614f78001e0090000000e8001007980053
:1054ec004e4090000080fb000000ea004f00de0000
:1054fc0000407800ce4090008140e9004147980080
:10550c000004e000edff3a001e4078000080fa0035
:10551c00000006000000fa00110a800080ff2f0036
:10552c00008060000010a000100a880042e1a80072
:10553c00110a8000f0f92f0000806000100a88002a
:10554c007134800000fe2f0000806000d000b3009a
:10555c00703488009420a8008420a90021058000c4
:10556c00f0f82f00008060000040a00020058800ab
:10557c000080fa00000006000000fa00310a8000ea
:10558c0080ff2f00008060003000b300300a8800dc
:10559c0046e1a800310a8000f0f92f00008060007d
:1055ac00300a880071348000f00f2e00808060007b
